:020000040800F2
:10000000500A00206901000871150008F11200086B
:1000100000000000000000000000000000000000E0
:10002000000000000000000000000000851800082B
:100030000000000000000000E5150008790100083C
:100040007B0100087B0100087B0100087B010008A0
:100050007B0100087B0100087B0100087B01000890
:100060007B0100087B0100087B0100087B01000880
:100070007B0100087B0100087B0100087B01000870
:100080007B0100087B010008000000007B010008E4
:100090007B0100088D1900087B0100087B01000826
:1000A0007B0100087B0100087B0100087B01000840
:1000B0007B010008000000007B0100080000000038
:1000C00000F002F800F040F80CA030C808382418FE
:1000D0002D18A246671EAB4654465D46AC4201D180
:1000E00000F032F87E460F3E0FCCB6460126334272
:1000F00000D0FB1AA246AB46334318472027000026
:1001000040270000103A02D378C878C1FAD85207C5
:1001100001D330C830C101D504680C6070470000BD
:100120000023002400250026103A01D378C1FBD813
:10013000520700D330C100D50B6070471FB5C046D1
:10014000C0461FBD10B510BD00F0CAFE1146FFF736
:10015000F5FF01F0CFFF00F0E2FE03B4FFF7F2FF7E
:1001600003BC00F0E7FE000007488047074800474F
:10017000FEE7FEE7FEE7FEE7FEE7FEE70448054987
:10018000054A064B7047000011190008C10000081D
:10019000F0050020500A0020F0060020F0060020A4
:1001A000002203098B422CD3030A8B4211D3002374
:1001B0009C464EE003460B433CD4002243088B424E
:1001C00031D303098B421CD3030A8B4201D39446DB
:1001D0003FE0C3098B4201D3CB01C01A52418309CE
:1001E0008B4201D38B01C01A524143098B4201D388
:1001F0004B01C01A524103098B4201D30B01C01AB3
:100200005241C3088B4201D3CB00C01A524183082C
:100210008B4201D38B00C01A524143088B4201D359
:100220004B00C01A5241411A00D2014652411046B9
:1002300070475DE0CA0F00D04942031000D340422E
:10024000534000229C4603098B422DD3030A8B4264
:1002500012D3FC22890112BA030A8B420CD3890102
:1002600092118B4208D3890192118B4204D38901E8
:100270003AD0921100E08909C3098B4201D3CB0126
:10028000C01A524183098B4201D38B01C01A5241DB
:1002900043098B4201D34B01C01A524103098B42DF
:1002A00001D30B01C01A5241C3088B4201D3CB00CA
:1002B000C01A524183088B4201D38B00C01A5241AD
:1002C000D9D243088B4201D34B00C01A5241411A84
:1002D00000D20146634652415B10104601D34042B2
:1002E000002B00D54942704763465B1000D3404263
:1002F00001B50020C046C04602BD70477047704738
:100300000246C80FC00781434B0030B54B405B002D
:100310009B0D20D01923DB06C91801231B05994228
:1003200020DB0324A40704251346AB400BD3002B8A
:1003300004D1EB0613409B00E34204D4012464077C
:10034000002312195941FF231B0599420BD2C90002
:100350000143500F09E0CB0204D5014308030243D7
:1003600005D0054830BDFF21C905084330BD08460A
:1003700007210905884330BD0000C07FF0B50C4659
:10038000871A9C410D46861A9D4103D2C01BA1418C
:10039000D21963410D0D1F0DC74EEC1BAE435CD04F
:1003A0007F057F0D0026002F51D02D05AC46A943B7
:1003B000DD020123ED0A1B051D4320231B1B24D452
:1003C0001746E740381871412F46E740CC199D4049
:1003D0002818314661410C0D27D161449A4013D54C
:1003E0000023401C594152000ED140084000012218
:1003F0004B005205D34207D305204007C14201D527
:10040000AE4900E0AE493046F0BD6B00002A00D096
:1004100001229A181F23203C1B1B01D5002302E058
:10042000E540281871410C0DD7D001242405091985
:10043000C407CD0740084908E40F28436144002C55
:10044000D5D00024401C61419A40D0D1CDE76A0547
:10045000520DD9D1C90FC907D5E79A4D4E000028D2
:1004600001D0012400E0002434195F00002A01D0EB
:10047000012600E00026BE19934FAC420CD8AE42D4
:100480000AD8B44206D001256D05EC42BCD0104616
:100490001946F0BD9942FCD000203946F0BDF0B5B8
:1004A0001FB40C460F46811A9F412546861A9D416E
:1004B00006D20125ED076F40401ABC4152187B411E
:1004C000210D1E0D8D1BAC467B4D8D437ED07505D9
:1004D0006D0D7CD00D05AE46AC431B031B0B774D59
:1004E00052429D41202366469B1B14D31746F7407A
:1004F000381800260090744160462F460741E419E1
:1005000000989D402818664116D4714671189A408B
:1005100025D5012320E093182A466A415200002B7A
:1005200000D0521C1E23203E9B1B002B61DD354159
:10053000EE1728186641E8D5001876415B1C9A40F2
:1005400000D3401C4B05F3181524E34010D3002BB7
:1005500052D071467118D30FC01802D3491C05B090
:10056000F0BD0123DB079A42F9D140084000F6E7CD
:1005700001225205B21801D1002853D00123CC0A20
:10058000DB029943891E002A08D1020C03D0020C19
:100590000004103902E00246002020390023550BE8
:1005A00005D112020823550B01D152010D23550C20
:1005B00001D112011B1DD50C01D192009B1C150D00
:1005C00001D152005B1C2025EE1A01E02CE022E054
:1005D0000546F54015439840CA1AE1076918130506
:1005E000C918002ABBDA032040070818C10FC90741
:1005F0000FE071466118B2E7F10740080843711037
:1006000071444A000CD001235B059A42A7D2C90F5E
:10061000C9070020A3E74905490D26D1002001E0C4
:100620000028F4D100219AE7264D6600002801D069
:10063000012100E0002171185F00002A01D001268D
:1006400000E00026BE19204FA94210D8AE420ED8B5
:10065000B14208D001256D05E94206D01946A8022D
:10066000414010467BE79C4201D0214677E70020BD
:10067000394674E730B40C465C4004D50124E407E5
:10068000634030BC0BE730BC78E630B40C465C40CD
:1006900004D50124E407634030BC6FE630BCFEE6BD
:1006A00030B40124E40761400D465D4001D430BC04
:1006B00064E6634030BCF2E6FF0700000000F0FF94
:1006C0000000F07F0000E0FF0000F87FF0B51FB4ED
:1006D000F84F0E091D09BC463E403D400C46B7434D
:1006E0005C408CB0002F7DD06746AF43FBD0002D1F
:1006F00079D0002EFCD0E20F3243521BFF24A40419
:1007000012190892420DCD02C7020E981543420DF0
:10071000D9021143C202600305430143080C01954D
:10072000150CAC4605040B46AB430A9565462D04F3
:10073000AA430995E04D040A7D446419803C25785C
:1007400006466E4301247619E405A61B7543ED0C9D
:10075000490BAD1C69434919A401611A0E0CB64638
:100760003604B143694376466E43090C7118890912
:100770000591F90700D0A100049101997F08CC07E9
:1007800027434C08059DE10B4D432D0C2946664639
:10079000754302950D4645432E46029D7D1BB4418F
:1007A00000950D465D4301942C0C2F040D465543D6
:1007B000AE462D0C3D43029503947546049C2D04D2
:1007C000641B049406D2029C039D641C00267541A0
:1007D0000395029401AC70CC009F7D1BB4410904C9
:1007E000009501E03AE15EE1079101940599A408C2
:1007F0006143090C0C464443650BE70464464C43D3
:10080000A646640B3C43039502947446049DE4049D
:100810002C1B049406D2029C039D641C0026754187
:100820000395029401AC70CC009F7D1BB4410194F0
:100830000C465C430095650FE7000C465443A64602
:10084000640F3C43039502947446049DE4002C1B02
:10085000049406D2029C039D641C002675410395F6
:10086000029401AC70CC009F7D1BB441AE09AF0671
:10087000049DC900AD092F43049DA406AD0604954F
:10088000079D344369180791059DE10B4D432D0CDD
:1008900029466646754302950D4645432E46029D00
:1008A0007D1BB44100950D465D4301942C0C2F0433
:1008B0000D465543AE462D0C3D43029503947546B7
:1008C000049C2D04641B049406D2029C039D641CAA
:1008D000002675410395029401AC70CC009F7D1BEE
:1008E000B44101948C050694079C890A611800950F
:1008F0000791019C0599A4086143090C0D464543E5
:10090000680BEF040D46644665436C0B3C43049F43
:10091000ED047D1BAC4602D20025641C6841009E9C
:10092000019D371B85410846584301950C46460FEB
:10093000C5005443600F28436546E4002C1B02D2D7
:100940000025401C6E41019D3F1AB5412846BD0956
:10095000800628438446A009BF064E020699A406D5
:1009600076180743079D002068410A9907901943AC
:100970000020099B00906046FF1913434041E20F9D
:1009800064003A43A4460446D71A8C41A04203D9D6
:100990000120009020463A46C70F94184041624615
:1009A000D20F2243644664000494009CBE46640057
:1009B000D71AA446044602978C417746002F01D1EE
:1009C000A04204D96046401C8446029A2046C40FC7
:1009D000A64694184041049A0546D20F2243644625
:1009E0006400D31A8D417146002901D1A84202D971
:1009F00028461A46641C10430122002800D01643E2
:100A000061020020079B044689195C410223002CE7
:100A100002DB491813466441089DCE0A2D145D1966
:100A20004B056705E10A2C050D1908993E43C907D6
:100A30006940002B08D0934006D30022761C514118
:100A4000002B01D1760876001C4A002D43DB1542AD
:100A500041D0AA433FD0304611B0F0BD0E46071832
:100A60004E41174D7A42B5411AD30E9A1D4696183B
:100A70005D41134A7642AA4112D3012252054D002C
:100A8000D5420AD15C00D4420AD04B4002D5920232
:100A90001143E1E749004908DEE7E10FC90718E023
:100AA00000200849D8E7054801420DD10342F7D09C
:100AB000F3E700000000FF07602000000000F07F67
:100AC0000000E0FF0000F87F114821460143C012FA
:100AD00041400020C0E70123089A9B069A4205DCAA
:100AE000032252078918C90FC907B5E70522520723
:100AF0008918074A1143D2125140ADE7594050407E
:100B000010B54B40424059405040FFF7DFFD10BD4B
:100B1000FFFFFF7F30B50346CA02400D1043164D5C
:100B2000164C0A1502D02043002A06DBAA1A002A16
:100B300012DDD040FF2A0BDC30BD5205520D01D131
:100B400040004008AA1A07D4D0404042FF2A01DDE5
:100B5000002030BD0028FCDD4A00002B01D0012020
:100B600000E00020101801225205D042F0D8C8172A
:100B7000C043604030BD00001E0400000000008043
:100B80001F22030C02D10F22000402D0030E03D057
:100B900004E00020014670470002083A030F01D12B
:100BA0000001121F830F01D18000921E002801DB7B
:100BB0004000521E120551184205C012411810463D
:100BC0007047C10FC90700D040420122920711436C
:100BD000D6E701218907D3E7F0B5934C0D092646E6
:100BE000AC46AE430D465D4087B0002E7ED01E0958
:100BF0002746B743FAD067462740ED0F3D432640CE
:100C000075D024012142FBD07419FF25AD04641B6B
:100C10000494CC02D90201231B05C90A1943E40A32
:100C20001C430F01110F2401030F1C430501160182
:100C30000F43A20B2D0990038443A90B880385431E
:100C4000BB0B980387433609BC46B00B8703BE43F2
:100C50000F46474303972F4677430296BE46029FAF
:100C60004E19C71906967E430597039FF71B7646D4
:100C7000BE1B77463F0100970196039FB60BF619FE
:100C8000B646019E009FB604BF1902D37646761C75
:100C9000B64676467600002F01D001273E436746D0
:100CA0007D43AE46029F25467D4300956D00AE19FB
:100CB00075466D00AF1965465D19069E03956E4336
:100CC0007546751BAE461519059E02956E43009D2F
:100CD0005943761B75466D1A50438646301A059067
:100CE0000195F80606D07D09012001E07DE079E05C
:100CF000054300E07D090E0A090600204D19464112
:100D000000967646310A3706009E7F1971418E465D
:100D100001998D0D8E027146F6194D41AE46059D25
:100D2000A90DAF027546BE1969415A4363465C433B
:100D3000039D029B6B439B1A1D1BAB0EAD016D18EF
:100D40004341110B120552195941230A2406A519D2
:100D50005341934200D2491C01225202914203D3D3
:100D600015220226F64302E014220326F64320242D
:100D7000A41AA1401F46A740BC461F46D7400F43B8
:100D80002946D14062461143049A1214B218130541
:100D9000049EFB18F6077340A54009D00124A54026
:100DA00006D30024491C6341002D01D149084900A4
:100DB0001E4CA24203D20846194607B0F0BD0122DC
:100DC00004999206914207DB05214907184A5918F0
:100DD0001143D2125140F0E7032149075918C90FB6
:100DE000C907EAE70020E907E7E706180C464C4187
:100DF00010487642A04114D394181A465A410D481F
:100E0000644290410DD3012049004005814208D33E
:100E10005900814205D3E90F074AC9070020114351
:100E2000CBE700200549C8E70000FF07FE070000E8
:100E3000FFFFFF7F0000E0FF0000F07F0000F87F71
:100E40000121C9050123411842001B06D3185B0E7E
:100E50000AD0C1100722D206891840075242D14257
:100E600001D5520089187047090208D50146002AA9
:100E700003D0C10FC90700207047104670474202D7
:100E800002D0002002497047072109050143F4E719
:100E90000000F87F10B502469E240002D115A3077A
:100EA000002902D01843002904DB611A00290CDD57
:100EB000C84010BD0906090E01D140004008611A62
:100EC00003D4C84040420028F3DDFF21500009064A
:100ED000884201D9002010BDD017C043584010BD32
:100EE000754600F023F8AE46050069465346C00833
:100EF000C000854618B020B5FFF740F960BC002758
:100F00004908B6460026C0C5C0C5C0C5C0C5C0C5D5
:100F1000C0C5C0C5C0C5403D49008D4670470446A8
:100F2000C046C0462046FFF718F900000048704749
:100F30009005002001491820ABBEFEE72600020004
:100F4000704710B50B460021846A1C43846200BFC1
:100F50000C4614432146416110BD016070470029D1
:100F600004D0826801231A43826003E0826802236E
:100F70001A4382607047000010B504460548844259
:100F800007D10121401500F0A9FB0021601500F0F8
:100F9000A5FB10BD0024014030B501460020002211
:100FA00000238C680125ED072C438C6000BF8C6802
:100FB000E30FDB07521C0F242403A24201D0002BB5
:100FC000F5D18C68E40FE407002C01D1086C00E037
:100FD000002030BD0146086C80B2704730B5024633
:100FE00000200023012424060C40002C05D0946826
:100FF00001252D06AC43234600E013681C460C4037
:10100000002C01D0012000E0002030BD002A03D0D8
:1010100043680B43436002E043688B43436070477F
:1010200010B50022C268084B1A400C7964030B68A3
:1010300023438C682343CC6823430C6923434C69C6
:1010400023431A43C26010BD03D2FFFF816804220C
:101050001143816070470021016001718160C160AE
:10106000016141617047000010B504460920C006C7
:10107000844209D10121480400F0F0FA0021012046
:10108000400400F0EBFA30E01848844208D1012116
:10109000000200F0E3FA0021200200F0DFFA24E071
:1010A0001348844208D10121000200F0D7FA002140
:1010B000200200F0D3FA18E00E48844209D1012141
:1010C000080500F0CBFA00210120000500F0C6FA67
:1010D0000BE00948844208D10121880500F0BEFADE
:1010E00000210120800500F0B9FA10BD000400487D
:1010F00000080048000C004800140048F0B50A46FB
:1011000000210023002400BF3DE001258D402B4637
:1011100015681D402C469C4234D11579012D02D012
:101120001579022D16D185684F000326BE40B543C0
:10113000856055794E00B540866835438560858861
:1011400001268E40B5438580858896798E40B6B25B
:101150003543858005684F000326BE40B5430560D2
:1011600015794E00B540066835430560C5684F00E7
:101170000326BE40B543C560D5794E00B540C6686C
:101180003543C560491C1029BFD3F0BDF0B500231D
:1011900000244D07EE0E1546B5402B46CD10AE008F
:1011A00005462035AD594E07F70E0F26BE40B54314
:1011B000CE10B60007462037BD51CD10AE003D46DB
:1011C000AD591D432C46CD10AD003E467451F0BDC7
:1011D0000146088A704702460020938A0B40002B84
:1011E00001D0012000E00020704701857047816137
:1011F0007047000010B50C490C48FFF7EFFE0028BF
:1012000002D00A48FFF722FF00BF04210748FFF77A
:10121000E5FE0028F9D004210448FFF79EFE0348AC
:10122000FFF7D8FE10BD00000100000100240140BE
:101230001CB50920C006FFF717FF2C48FFF714FF65
:101240000121480400F0FAF90121880400F0F6F9C0
:10125000802000900021684601710121C17169461A
:101260000920C006FFF74AFF402000906946092088
:10127000C006FFF743FF0220009069460920C00620
:10128000FFF73CFF69461948FFF738FF2020009020
:10129000012168460171C17169460920C006FFF746
:1012A0002DFF04220921C806FFF770FF04220A213E
:1012B0000920C006FFF76AFF0120400200900221CA
:1012C0006846017103214171002181710121C171C1
:1012D00069460920C006FFF711FF01208002009037
:1012E00069460920C006FFF709FF1CBD000400483D
:1012F00000BFFEE7002904D0026801231A43026000
:1013000003E00268520852000260704710B50246BE
:101310000023002093691C460C402346002B01D07B
:10132000012000E0002010BD10B50A46002103682E
:101330005B085B0003600168144B19409468240249
:1013400053682343194301600F2424061368A34301
:101350000361036801242343036000218160C160AD
:101360001469936923431946816083680124E40367
:1013700023438360D16803680B4303604168044BD7
:10138000194053691943416010BD0000FFE0CF00D0
:10139000FF7FFF07F8B505460F46164600BF01213F
:1013A000C9032148FFF7B2FF0028F8D1012040030C
:1013B00000230122E02100901B4800F06DF800BFDF
:1013C00002211948FFF7A2FF0028F9D03946164834
:1013D00000F060F800BF40211348FFF797FF002896
:1013E000F9D00920800201235B063246E0210090FB
:1013F0000D4800F051F800240BE000BF04210A481A
:10140000FFF784FF0028F9D0074800F03FF828557F
:10141000641CB442F1DB00BF20210348FFF776FFD4
:101420000028F9D0F8BD000000540040F8B5064689
:101430000F46154600BF0121C9031348FFF766FF99
:101440000028F8D109208002EAB201235B06E021DE
:1014500000900D4800F020F800240BE000BF0421AC
:101460000948FFF753FF0028F9D0074800F00EF8AD
:101470003055641CAC42F1DB00BF20210248FFF76D
:1014800045FF0028F9D0F8BD005400400146486AE5
:10149000C0B2704781627047F0B50C4600214168C8
:1014A000074D2940A505AD0D1604FF273F043E401A
:1014B00035431D43059E354329434160F0BD00007F
:1014C000009800FCF8B505460F46164600BF0121FE
:1014D000C9032048FFF71AFF0028F8D10120400374
:1014E000C3020122E02100901A48FFF7D5FF00BF98
:1014F00002211848FFF70AFF0028F9D0394615489D
:10150000FFF7C8FF00BF80211248FFF7FFFE002849
:10151000F9D0002001235B063246E02100900D48FF
:10152000FFF7BAFF00240BE000BF02210948FFF7D4
:10153000EDFE0028F9D0295D0648FFF7ABFF641CDB
:10154000B442F1DB00BF20210248FFF7DFFE002894
:10155000F9D0F8BD005400400020034908604860FD
:101560000873024888607047800500202000002032
:101570007047000000218278002A27D0184A0323F0
:101580001B02D21803789B109B00D1580278920757
:10159000D30EFF229A400B46934319464278920796
:1015A000120E03789B07DB0E9A4011430C4A03236B
:1015B0001B02D21803789B109B00D1500278D306EF
:1015C000DB0E01229A40064B1A6007E00278D30630
:1015D000DB0E01229A40024B80331A6070470000F4
:1015E00000E100E0704700001FB51521684601705A
:1015F0000021417001218170FFF7BCFF0E4800F00F
:10160000F7F90121480400F059F83F21684681802C
:10161000FA200290002168468181C18001A9064814
:1016200000F078FA01221146034800F068FA01211F
:10163000014800F0CFF91FBD00440140002905D04A
:10164000054A52690243044B5A6104E0024A526956
:101650008243014B5A61704700100240002905D0B7
:10166000054A926A0243044B9A6204E0024A926A73
:101670008243014B9A62704700100240002905D056
:10168000054AD2690243044BDA6104E0024AD26996
:101690008243014BDA61704700100240002905D0F7
:1016A000054A12690243044B1A6104E0024A1269B6
:1016B0008243014B1A61704700100240002905D097
:1016C000054A92690243044B9A6104E0024A926916
:1016D0008243014B9A61704700100240002905D0F7
:1016E000054AD2680243044BDA6004E0024AD26839
:1016F0008243014BDA60704700100240FEB5044699
:1017000000250026002001900090002750484068E6
:101710000C2108400546002D04D0042D05D0082DCD
:1017200028D105E04B48206027E04A48206024E0AB
:10173000474840680F2189040840064644484068ED
:101740000321C90308400190B00C861C01980028B1
:1017500003D14148704320600BE03D48C06A000758
:10176000000F401C00903B480099FEF719FD7043A4
:10177000206002E03748206000BF00BF3448406866
:10178000F021084005462D093448475D2068F8409F
:1017900060602F48406807210902084005462D0A6D
:1017A0002E48475D6068F840A0602948006BFF2123
:1017B00001310840884202D02948E0600DE0244809
:1017C0004068012189030840884203D0A06840088E
:1017D000E06002E0A0688008E0601D48006B4021E6
:1017E0000840402802D01F48206102E00120C003C9
:1017F00020611748006B10210840102802D01548BE
:10180000606101E0206860611148006B8007800F13
:10181000002802D1A068A06119E00D48006B800784
:10182000800F012802D12068A06110E00848006BF9
:101830008007800F022802D18003A06107E00448DE
:10184000006B8007800F032801D10248A061FEBD14
:101850000010024000127A0000093D000D00002037
:10186000809FD500128000000549096B102291432A
:10187000034A11631146096B01431163704700006D
:1018800000100240704700000CB50020019000904D
:1018900011201D4908601D4840681C4948600846E1
:1018A00040684860084640687F21C903884317495B
:1018B0004860084640680121C9040843134948604C
:1018C000084600680121090608431049086000BF66
:1018D0000E4800680121490608400028F8D00B484E
:1018E0004068800880000949486008464068022135
:1018F00008430649486000BF044840680C2108407E
:101900000828F9D10CBD0000002002400010024060
:1019100010B51B48006801210843194908600846B2
:10192000406818490840164948600846006816494A
:10193000084013490860084600680121890488436B
:101940000F490860084640683F21090488430C4954
:1019500048600846C06A00090001C8620846006B7A
:10196000FF2154318843064908630846406B40080C
:101970004000486300208860FFF786FF10BD00002C
:10198000001002400CB8FFF8FFFFF6FE10B5012171
:101990000D4800F0A1F8002815D001210A4800F0F8
:1019A00015F820210920C006FFF715FC002805D1F5
:1019B00020210920C006FFF71AFC04E0202109209D
:1019C000C006FFF712FC10BD00440140CA4302826A
:1019D00070470000002904D0028801231A430280C6
:1019E00003E00288014B1A4002807047FEFF0000AE
:1019F00010B504463148844208D10121C014FFF7D4
:101A00006DFE0021E014FFF769FE56E0012080071B
:101A1000844208D101210846FFF740FE0021012041
:101A2000FFF73CFE49E02648844208D1012102200C
:101A3000FFF734FE00210220FFF730FE3DE0214891
:101A4000844208D101211020FFF728FE0021102038
:101A5000FFF724FE31E01C48844208D101218015A3
:101A6000FFF71CFE0021A015FFF718FE25E0174820
:101A7000844209D101210804FFF730FE0021012032
:101A80000004FFF72BFE18E01148844209D1012120
:101A90004804FFF723FE002101204004FFF71EFE4B
:101AA0000BE00C48844208D101218804FFF716FEA0
:101AB000002101208004FFF711FE10BD002C014021
:101AC00000040040001000400020004000400140A1
:101AD000004401400048014030B502460020002388
:101AE0000024158A0D402B4695890D402C46002B6D
:101AF00003D0002C01D0012000E0002030BD002ADE
:101B000003D083890B43838102E083898B438381E4
:101B10007047000000220288154B984206D001232E
:101B20009B07984202D0134B984203D1124B1A40A4
:101B30004B881A43114B984203D0114B1A400B8922
:101B40001A4302804B68C3620B880385084B984296
:101B500008D00C4B984205D00B4B984202D00B4B4F
:101B6000984201D18B7A038601238382704700005B
:101B7000002C0140000400408FFF000000100040D6
:101B8000FFFC0000004001400044014000480140CB
:101B900010B504460B460CE000BF0A48C06980211E
:101BA00008400028F9D02078064920310881641CBB
:101BB0005B1E002BF0D10D2000F006F80A2000F08B
:101BC00003F810BD0038014000BF0549C9698022F3
:101BD00011400029F9D002492031088170470000E6
:101BE00000380140002904D0026801231A43026032
:101BF00003E00268520852000260704700B589B0E5
:101C000001214804FFF71AFD01218803FFF756FD63
:101C1000012202210920C006FFF7B8FA01220321A0
:101C20000920C006FFF7B2FA04200790022108A895
:101C3000017003214170002181700121C17007A949
:101C40000920C006FFF75AFA0820079007A90920C3
:101C5000C006FFF753FA4B20C0010190002002900C
:101C60000390049006900C20059001A9044800F010
:101C700009F801210248FFF7B5FF09B000BD0000D7
:101C800000380140F0B589B005460E46002400201A
:101C9000089000BF00BF28684008400028606C68BA
:101CA00003210903204688430446B06804436C605E
:101CB0002C682F480440F168706808433169084374
:101CC00004432C60AC680321090220468843044683
:101CD00070690443AC606846FFF710FD25488542F3
:101CE00002D10698089001E0029808902868012126
:101CF000C9030840002809D0326851001923089A06
:101D00005A431046FEF74CFA074608E03268910045
:101D10001923089A5A431046FEF742FA07466421EF
:101D20003846FEF73DFA0401200964214843381A79
:101D3000079028680121C903084000280AD00799A4
:101D4000C900084632306421FEF72AFA4007400FE6
:101D5000044309E007990901084632306421FEF77F
:101D60001FFA0007000F0443AC8109B0F0BD00006A
:101D7000F3E9FFFF0038014000B589B001214804B4
:101D8000FFF75CFC01214802FFF798FC012001905D
:101D90000321684601720021C17201A90920C00611
:101DA000FFF7ACF91248FFF7E7F803A8FFF753F97C
:101DB00000200390012168460174002005900790DF
:101DC000089003A90A48FFF72BF9072201210848C8
:101DD000FFF7B7F80648FFF7DFF8002204210448B0
:101DE000FFF714F901210248FFF7B9F809B000BD67
:101DF0000024014030B47446641E2578641CAB4254
:101E000004D3635D5B00E31830BC18471D46F8E758
:101E1000002105E0002200E0521C8242FCDB491C4C
:101E20007D23DB009942F5DB7047000010B53F22AF
:101E30000021114800F056FA0C2206210E48FFF747
:101E4000A9FA04220C49491C0C4800F037FA042274
:101E50000949491D0948001D00F030FA02220649CF
:101E60000931074800F02AFA012203490B310548DD
:101E700000F024FA10BD00002000002080050020A2
:101E8000080000200C00002070B53F2200214148CE
:101E900000F028FA002202211046FFF713FB0D2163
:101EA0003DA0FFF775FE2AE000BF0920C006FFF73E
:101EB0008FF9022108400028F7D104220821354873
:101EC000FFF768FA3348007880280CD13148407811
:101ED000012808D12F48C07800022E49897808438C
:101EE000314908800CE02B480078022807D1642093
:101EF000FFF78EFF002202211046FFF7E3FAD3E737
:101F000000BF6420FFF784FF6420FFF781FF3C21BE
:101F100025480088FEF74EF9C5B23C2122480088CA
:101F2000FEF748F9CEB23C211F480088FEF742F97F
:101F3000002901D0681CC5B20522120200211B48ED
:101F400000F0D0F900241DE0002203211046FFF725
:101F5000B9FA681EA04208D13D216143134A88188E
:101F6000721C0321FFF762FA07E03D2161430F4A2B
:101F700088183D220321FFF759FA6420FFF748FF34
:101F8000601CC4B2AC42DFDB0D2109A0FFF700FEEC
:101F900070BD000020000020C7EBB0B4D2A3BFD8B2
:101FA000C6F72E2E2E0000000A0000207F00002021
:101FB000BAECCDE2D1A7CFB0BDE1CAF82100000054
:101FC00070B53C212B480088FEF7F4F8C5B23C21DF
:101FD00028480088FEF7EEF8002903D1002D01DD26
:101FE000681EC5B23C2123480088FEF7E3F8CEB254
:101FF000002435E03F2200211F4800F073F9AC4275
:1020000013D1FF201C4908701C4A1D480088401C41
:10201000111832461848401C00F050F9B01CC2B2EA
:1020200001211548FFF74EFA10E013480470134AD7
:1020300013480088401C11183C220F48401C00F037
:102040003DF93E2201210C48FFF73CFA3220FFF710
:10205000DFFE0B4800883D3009490880601CC4B28F
:10206000AC42C7DD0020064908800F2105A0FFF71C
:102070008FFD70BD0A000020200000207F0000209E
:1020800006000020B5C8B4FDBAECCDE2B7A2C9E4A1
:102090002E2E2E00F8B507460C460126002500948A
:1020A0003D4606E00A2046430A212846FEF778F816
:1020B00005460A2DF6D810E031463846FEF770F88E
:1020C00030302070641C31463846FEF769F80F4600
:1020D0000A213046FEF764F80646002EECD10020B7
:1020E0002070002500E06D1C0098405D0028FAD1AA
:1020F000E8B2F8BDFFF79CF8FFF776FAFFF77EFD30
:1021000000F0B8F8FFF738FEFFF726FA15211CA0FB
:10211000FFF73EFD19208001FFF77AFE16211EA071
:10212000FFF736FD7D20C000FFF772FE27E000F0CC
:10213000E9F81F480078012821D11E4800780028BE
:102140000AD11D480078032806D120211BA0FFF7E3
:102150001FFD0120174908701748007806280AD18A
:1021600009211FA0FFF714FD122120A0FFF710FD89
:1021700000200F4908701048007800F01BF9D6E7DE
:10218000B5C8B4FDB4D3C9E8B1B8B3F5CABCBBAFE8
:102190002E2E2E0D0A000000C7EBB0B473746172CE
:1021A00074BCFCBDF8D0D0B2E2CAD4210D0A000044
:1021B000000000200100002002000020372CBFAAF0
:1021C000CABCB2E2CAD4B8B4CEBBB0B4BCFC2CC753
:1021D000EBB0B4B8B4CEBBB0B4BCFC21000000007E
:1021E000B2E2CAD4BDE1CAF821000000B0B47374F1
:1021F000617274BCFCD6D8D0C2B2E2CAD42100004D
:10220000F0B587B005460E461446002728463146ED
:10221000FEF780FC06900698FEF7D3FC2A4633466C
:1022200001910090FEF73CFA03910290FEF768F8E6
:10223000049021460698FFF72DFF00E07F1CE05D2B
:102240000028FBD12E20E0550949049800F04EFAF1
:102250000390FEF71FFE0690781C21180698FFF7E2
:1022600019FF059005983818401CC0B207B0F0BDA2
:102270000000C84200B587B01020FFF7F5FA012131
:102280004805FFF7FBF901200005039000200690A8
:10229000019001200290002004900590612000052B
:1022A000009069460448FFF73FF801210248FFF714
:1022B00021F807B000BD00000054004070B514467E
:1022C00002460D46002801D0002900D170BD002330
:1022D00004E02E7816706D1C521C5B1CA342F8DBC8
:1022E00000BFF3E730B503460024002B00D130BD1A
:1022F0001C4601E02170641C1046521E0028F9D1D2
:102300001846F4E710B50920C006FEF761FF8021EA
:102310000840002802D00020214908702048007899
:10232000002816D10920C006FEF752FF8021084080
:1023300000280ED101201A4908701A480078012897
:1023400007D119480078401C174908700020174928
:1023500008700920C006FEF73BFF40210840002816
:1023600002D000201249087011480078002816D1C8
:102370000920C006FEF72CFF4021084000280ED19E
:1023800001200B49087007490870002007490870B0
:1023900005480078062802D101200349087010BDC5
:1023A00004000020000000200200002001000020A6
:1023B00003000020F0B587B0054600262B00FFF78C
:1023C00019FD0604058ABFDCF0EEFDE080480078C8
:1023D00000287FD1FFF72AFD202200217D48FFF74A
:1023E00081FF08227CA17B48FFF768FF7D490868D0
:1023F000FEF726FD774A083205910490FFF700FFAB
:102400000646314608317348FFF7C2FB20220021FF
:102410007048FFF767FF744800887449884216DBEC
:10242000714800887249884211DC082271A169480C
:10243000FFF744FF674908316B480088FFF72AFE21
:102440000646314608316348FFF7A2FB03E00D2141
:102450006BA0FFF79DFBFEF7CDFE04466C498C4256
:102460002DDB6B485E30844229DC1B2269A1594870
:10247000FFF724FF6000FEF7A4FB6D4A6D4B01914E
:102480000090FEF7A9FB00226B4B03910290FEF730
:102490001DF905910490FDF733FF07463846FEF716
:1024A000CFFC4C4A1B3205910490FFF7A9FE06466B
:1024B00031461B314748FFF76BFB04E00AE00D2172
:1024C0005EA0FFF765FB0120414908700F215FA066
:1024D000FFF75EFB78E03E48007800282FD1FFF739
:1024E000A5FC202200213B48FFF7FCFE0B215BA04E
:1024F000FFF74EFB5C480078C007C00F002804D0EF
:102500000E215AA0FFF744FB03E00E215BA0FFF76A
:102510003FFB5548007802210840022804D10E21D3
:102520005AA0FFF735FB03E00E215CA0FFF730FB5C
:102530000120274908700F2144A0FFF729FB43E041
:102540005A48FEF745FE02210840002802D000202C
:10255000574908705548FEF73BFE02210840002805
:102560000AD153480078002806D10C2151A0FFF76A
:102570000FFB01204E49087026E01548007800281E
:102580000CD112214FA0FFF703FBFFF77DFC0120C8
:102590000F4908700F212DA0FFF7FAFA14E012E09E
:1025A000FFE70B48007800280CD112214AA0FFF762
:1025B000EFFAFFF705FD0120054908700F2123A060
:1025C000FFF7E6FA00E000BF00BF07B0F0BD000073
:1025D000010000205F000020312CCEC2B6C83A2096
:1025E000000000008005002008000020A660000018
:1025F0009A620000322CB9A6C2CA3A20000000003C
:10260000322CB9A6C2CA3A204572726F720000001D
:10261000C1070000332CB5E7D1B928332E3230562C
:10262000207E20332E333556293A204F4B20200070
:102630006666666666660A400000B040332CB5E701
:10264000D1B93A204572726F720000005374617202
:1026500074206F72204E657874203F00BCCCB5E7C3
:10266000C6F7D7B4CCAC3A000C000020342CBCCC5C
:10267000B5E7C6F731203A20BFAA0000342CBCCC05
:10268000B5E7C6F731203A20B9D80000352CBCCCCC
:10269000B5E7C6F732203A20BFAA0000352CBCCCE3
:1026A000B5E7C6F732203A20B9D800000004004848
:1026B00005000020B8B4CEBBBCFCB2E2CAD44F4B7C
:1026C00000000000382CBFAACABCBAECCDE2D1A7EA
:1026D000CFB0B2E2CAD40000392CBFAACABCBAEC4F
:1026E000CDE2B7A2C9E4B2E2CAD4000070B542009C
:1026F00064414B005C41120E39D01B0E38D0FF2ACA
:102700003CD0FF2B3AD040024902400A490A060059
:1027100045184E43000A090AD2184843ED017F3A92
:102720000104731A4019190C4318990F04D00121A0
:102730005B0849075B1A521CD80904D3401CF503F7
:1027400001D19D0607D0FF2A08D2D50506D0E4079F
:102750002043401970BD0125A843F4E7002A01DC9D
:10276000E00770BD2402FF202043C00570BD1B0E92
:10277000FF2A03D0FF2B01D0E00770BDFF264500E4
:102780003606B54206D84D00B54203D8D218FF2A06
:1027900000D0E7E7004870BD0000C07F80807F7EEA
:1027A0007D7C7B7A797877767675747372717170C7
:1027B0006F6E6E6D6C6C6B6A6A6968686766666579
:1027C0006464636362616160605F5F5E5E5D5D5C07
:1027D0005C5B5B5A5A595958585757565655555578
:1027E0005454535352525251515050504F4F4F4ED8
:1027F0004E4D4D4D4C4C4C4B4B4B4A4A4A49494926
:102800004848484747474746464645454544444467
:102810004443434343424242424141413C28000831
:102820000000002020000000040100085C280008CF
:1028300020000020300A00002001000800000100F4
:102840000000000000000000000000000001020382
:0C28500004010203040607080900000050
:04000005080000C12E
:00000001FF
