:020000040800F2
:10000000880F0020A1010008911D0008750F00084D
:1000100000000000000000000000000000000000E0
:10002000000000000000000000000000CD220008D9
:100030000000000000000000051E0008B1010008DB
:10004000B3010008B3010008B3010008B3010008C0
:10005000B3010008B30100084F0B0008B30100080A
:10006000B3010008B3010008B3010008B3010008A0
:10007000B3010008C5250008D5260008B301000813
:1000800005270008B30100080000000091250008C2
:10009000B3010008A1250008B3010008790F00088A
:1000A000B3010008B3010008B3010008B301000860
:1000B000B301000800000000B301000800000000C8
:1000C00000F002F800F040F80CA030C808382418FE
:1000D0002D18A246671EAB4654465D46AC4201D180
:1000E00000F032F87E460F3E0FCCB6460126334272
:1000F00000D0FB1AA246AB4633431847182E000027
:10010000382E0000103A02D378C878C1FAD85207C6
:1001100001D330C830C101D504680C6070470000BD
:100120000023002400250026103A01D378C1FBD813
:10013000520700D330C100D50B6070471FB5C046D1
:10014000C0461FBD10B510BD00F03FFC1146FFF7C3
:10015000F5FF02F0AFFD00F057FC03B4FFF7F2FF2C
:1001600003BC00F05BFC000070B505460C4616466B
:1001700002E00FCC0FC5103E102EFAD2082E02D38B
:1001800003CC03C5083E042E07D301CC01C5361F9E
:1001900003E021782970641C6D1C761EF9D270BDB5
:1001A0000748804707480047FEE7FEE7FEE7FEE70F
:1001B000FEE7FEE704480549054A064B7047000084
:1001C000F9230008C1000008280B0020880F002038
:1001D000280C0020280C0020F8B5042A2CD3830713
:1001E00012D00B78491C0370401C521E83070BD0A1
:1001F0000B78491C0370401C521E830704D00B78F7
:10020000491C0370401C521E8B079B0F05D0C91A56
:10021000DF002023DE1B08C90AE0FFF7A5FFF8BDB9
:100220001D4608C9FD401C46B4402C4310C0121F97
:10023000042AF5D2F308C91A521EF0D40B78491CCF
:100240000370401C521EEAD40B78491C0370401CFA
:10025000012AE4D409780170F8BD002203098B4219
:100260002CD3030A8B4211D300239C464EE0034655
:100270000B433CD4002243088B4231D303098B4209
:100280001CD3030A8B4201D394463FE0C3098B423F
:1002900001D3CB01C01A524183098B4201D38B0198
:1002A000C01A524143098B4201D34B01C01A52413B
:1002B00003098B4201D30B01C01A5241C3088B4280
:1002C00001D3CB00C01A524183088B4201D38B006B
:1002D000C01A524143088B4201D34B00C01A52410D
:1002E000411A00D201465241104670475DE0CA0FE4
:1002F00000D04942031000D34042534000229C46A4
:1003000003098B422DD3030A8B4212D3FC228901AD
:1003100012BA030A8B420CD3890192118B4208D383
:10032000890192118B4204D389013AD0921100E0E5
:100330008909C3098B4201D3CB01C01A52418309F9
:100340008B4201D38B01C01A524143098B4201D326
:100350004B01C01A524103098B4201D30B01C01A51
:100360005241C3088B4201D3CB00C01A52418308CB
:100370008B4201D38B00C01A5241D9D243088B4221
:1003800001D34B00C01A5241411A00D201466346C4
:1003900052415B10104601D34042002B00D5494228
:1003A000704763465B1000D3404201B50020C04651
:1003B000C04602BD70477047704700000246C80F34
:1003C000C00781434B0030B54B405B009B0D20D0F4
:1003D0001923DB06C91801231B05994220DB0324DE
:1003E000A40704251346AB400BD3002B04D1EB0626
:1003F00013409B00E34204D4012464070023121934
:100400005941FF231B0599420BD2C9000143500FEC
:1004100009E0CB0204D501430803024305D0054897
:1004200030BDFF21C905084330BD08460721090535
:10043000884330BD0000C07FF0B50C46871A9C4150
:100440000D46861A9D4103D2C01BA141D2196341BA
:100450000D0D1F0DC74EEC1BAE435CD07F057F0D0D
:100460000026002F51D02D05AC46A943DD02012303
:10047000ED0A1B051D4320231B1B24D41746E74010
:10048000381871412F46E740CC199D402818314655
:1004900061410C0D27D161449A4013D50023401CC3
:1004A000594152000ED14008400001224B00520534
:1004B000D34207D305204007C14201D5AE4900E031
:1004C000AE493046F0BD6B00002A00D001229A18D8
:1004D0001F23203C1B1B01D5002302E0E540281808
:1004E00071410C0DD7D0012424050919C407CD078B
:1004F00040084908E40F28436144002CD5D000246B
:10050000401C61419A40D0D1CDE76A05520DD9D146
:10051000C90FC907D5E79A4D4E00002801D0012424
:1005200000E0002434195F00002A01D0012600E019
:100530000026BE19934FAC420CD8AE420AD8B44242
:1005400006D001256D05EC42BCD010461946F0BD21
:100550009942FCD000203946F0BDF0B51FB40C46DE
:100560000F46811A9F412546861A9D4106D20125D4
:10057000ED076F40401ABC4152187B41210D1E0D02
:100580008D1BAC467B4D8D437ED075056D0D7CD0AB
:100590000D05AE46AC431B031B0B774D52429D41EC
:1005A000202366469B1B14D31746F74038180026B5
:1005B0000090744160462F460741E41900989D4021
:1005C0002818664116D4714671189A4025D5012322
:1005D00020E093182A466A415200002B00D0521C9A
:1005E0001E23203E9B1B002B61DD3541EE17281892
:1005F0006641E8D5001876415B1C9A4000D3401C48
:100600004B05F3181524E34010D3002B52D071464C
:100610007118D30FC01802D3491C05B0F0BD0123D7
:10062000DB079A42F9D140084000F6E70122520563
:10063000B21801D1002853D00123CC0ADB02994320
:10064000891E002A08D1020C03D0020C00041039C4
:1006500002E00246002020390023550B05D112028A
:100660000823550B01D152010D23550C01D1120164
:100670001B1DD50C01D192009B1C150D01D1520000
:100680005B1C2025EE1A01E02CE022E00546F54037
:1006900015439840CA1AE10769181305C918002ABA
:1006A000BBDA032040070818C10FC9070FE07146E5
:1006B0006118B2E7F10740080843711071444A001D
:1006C0000CD001235B059A42A7D2C90FC9070020AD
:1006D000A3E74905490D26D1002001E00028F4D107
:1006E00000219AE7264D6600002801D0012100E094
:1006F000002171185F00002A01D0012600E00026C9
:10070000BE19204FA94210D8AE420ED8B14208D02F
:1007100001256D05E94206D01946A8024140104660
:100720007BE79C4201D0214677E70020394674E7F9
:1007300030B40C465C4004D50124E407634030BC6F
:100740000BE730BC78E630B40C465C4004D501249D
:10075000E407634030BC6FE630BCFEE630B40124F1
:10076000E40761400D465D4001D430BC64E663405F
:1007700030BCF2E6FF0700000000F0FF0000F07F51
:100780000000E0FF0000F87F0121C90501234118A6
:1007900042001B06D3185B0E0AD0C1100722D206F6
:1007A000891840075242D14201D55200891870473A
:1007B000090208D50146002A03D0C10FC90700204D
:1007C000704710467047420202D00020024970472D
:1007D000072109050143F4E70000F87F70B5FF2405
:1007E0002404C609FF25264001352E43C209CB0942
:1007F0000546224023404D40002A6BD0002B69D093
:10080000A24267D0A34265D0002D00DA324601240F
:10081000E4052143204309020002090AD21A000A12
:100820004B0C7F24E31A434C7C44E35C7D2424047A
:10083000121914145B00A218884201D3521C00E064
:10084000400049420C465C4324115C43DB016415C3
:10085000E318040A5C43C502200D0C4644436419A6
:10086000250A5D432303EC0C0D4665430003001984
:10087000EB184C42A34201D35B18401CD40520184E
:10088000002B07D05B00C91804D3401C002901D1FC
:10089000400840003F2189048A4209D3002A08DC2D
:1008A0001106090F04D0032149074018C00FC007E3
:1008B00070BD01224100120689187F225206914222
:1008C000F6D205214907C84201D5901070BDFF201E
:1008D000C00570BD002D00DA3246174EA24207D285
:1008E000A34205D21802000E17D0E80FC00770BD52
:1008F000FF2443002406A34216D84900A14213D87E
:10090000A34201D1A1420FD0A14201D1002101E0B7
:1009100041004908D005084370BD1002000E03D005
:10092000FF200243D00570BD304670BD48404140B5
:10093000484053E7A82600000000C07F014600029F
:10094000CA1504D00123DB071843002A09DB9E23C4
:100950009A1A01D4D0407047FF22480012069042F4
:1009600001D900207047C817C04370471F22030CED
:1009700002D10F2200041CD0030E01D10002083A5C
:10098000030F01D10001121F830F01D18000921EBD
:10099000002801DB4000521ED205511802125118E6
:1009A0001922904004D3491C002801D1490849006C
:1009B00008467047C10FC90700D040420122920784
:1009C0001143D3E701218907D0E7754600F022F8EB
:1009D000AE46050069465346C008C000854618B0BB
:1009E00020B5FFF7E7FB60BC00274908B6460026A4
:1009F000C0C5C0C5C0C5C0C5C0C5C0C5C0C5C0C5CF
:100A0000403D49008D4670470446C046C0462046DA
:100A1000FFF7A3FB00487047C80A002001491820CF
:100A2000ABBEFEE726000200704710B50B46002162
:100A3000846A1C43846200BF0C4614432146416112
:100A400010BD01607047002904D0826801231A4359
:100A5000826003E0826802231A43826070470000CC
:100A600010B504460548844207D10121401501F024
:100A7000FBFB0021601501F0F7FB10BD00240140D5
:100A800030B501460020002200238C680125ED07C7
:100A90002C438C6000BF8C68E30FDB07521C0F24D3
:100AA0002403A24201D0002BF5D18C68E40FE407A7
:100AB000002C01D1086C00E0002030BD0146086C1C
:100AC00080B2704730B5024600200023012424067E
:100AD0000C40002C05D0946801252D06AC4323461C
:100AE00000E013681C460C40002C01D0012000E0FF
:100AF000002030BD002A03D043680B43436002E06E
:100B000043688B434360704710B50022C268084BAE
:100B10001A400C7964030B6823438C682343CC6828
:100B200023430C6923434C6923431A43C26010BD1D
:100B300003D2FFFF816804221143816070470021C6
:100B4000016001718160C16001614161704710B550
:100B5000042000F003F801F057F910BD0149486185
:100B60007047000000040140002120498279002ADA
:100B700035D00A46126803689A430B461A600A4643
:100B8000526803689A430B465A60027951180A6802
:100B900003681A430A60154A926803689A43134B24
:100BA0009A601A46D26803689A43104BDA60427919
:100BB000102A0CD11A46926803681A430B4B9A60AC
:100BC0001A46D26803681A43084BDA600DE00749F9
:100BD000427951180A6803681A430A6005E00279ED
:100BE00051180A6803689A430A607047000401407C
:100BF00010B501F0CBFF00F073F901F05DFA00F0E1
:100C000037FE10BD10B504460920C006844209D144
:100C10000121480401F0E8FA00210120400401F01C
:100C2000E3FA30E01848844208D10121000201F0C3
:100C3000DBFA0021200201F0D7FA24E013488442B5
:100C400008D10121000201F0CFFA0021200201F0B9
:100C5000CBFA18E00E48844209D10121080501F0C1
:100C6000C3FA00210120000501F0BEFA0BE009489B
:100C7000844208D10121880501F0B6FA0021012043
:100C8000800501F0B1FA10BD0004004800080048DA
:100C9000000C0048001400481CB50920C006FFF7EE
:100CA000B1FF2248FFF7AEFF0121480401F08CFAA2
:100CB000802000900021684601710121C1716946C0
:100CC0000920C00600F034F8082000906946092089
:100CD000C00600F02DF803216846417140200090C5
:100CE00001216846017169460920C00600F020F81C
:100CF0002020009069460920C00600F019F8022063
:100D0000009069460920C00600F012F84021092031
:100D1000C00600F07DF820210920C00600F078F818
:100D200002210920C00600F075F81CBD000400482F
:100D3000F0B50A4600210023002400BF3DE0012554
:100D40008D402B4615681D402C469C4234D11579A8
:100D5000012D02D01579022D16D185684F0003268A
:100D6000BE40B543856055794E00B5408668354331
:100D70008560858801268E40B54385808588967973
:100D80008E40B6B23543858005684F000326BE40CD
:100D9000B543056015794E00B540066835430560DA
:100DA000C5684F000326BE40B543C560D5794E00E7
:100DB000B540C6683543C560491C1029BFD3F0BD96
:100DC000F0B5002300244D07EE0E1546B5402B4626
:100DD000CD10AE0005462035AD594E07F70E0F2653
:100DE000BE40B543CE10B60007462037BD51CD10EA
:100DF000AE003D46AD591D432C46CD10AD003E46DC
:100E00007451F0BD0146088A70470146888A7047D0
:100E10000185704781617047002A01D0816100E03F
:100E200001857047F0B58BB00746002400200A907A
:100E300000BF07E060002649085AB84200DB03E023
:100E4000601C84B25A2CF5DB00BF5A2C02D1214819
:100E50000BB0F0BD002C01D11F48F9E72046FFF789
:100E6000B1FD0390FFF790FC054600221B4BFFF7F6
:100E70005FFC079106906100154A525A611E4900B5
:100E8000134B595A501AFFF795FD611E4900104A3D
:100E90000390505AFFF796FD02903846FFF792FDF7
:100EA0000190029901F054FF06460399FFF796FC62
:100EB0000546FFF769FC05910490079B069AFFF72A
:100EC00037FC09910890FFF779FA0A900A98BFE772
:100ED000202E0008000070420000F0C100003EC05B
:100EE00070B51B480078012808D11A4805887D2074
:100EF000C0002C46444325462C460BE01548058887
:100F00007D20C000454314480088411E2846FFF755
:100F1000A4F904461148046011480688114909687B
:100F20004E430E4801683046FFF797F90E49088096
:100F3000084600880D49884202D100200A490880ED
:100F40000B480078012802D100200749088070BDB5
:100F50000F000020080000200C00002028000020C6
:100F60002C0000202400002014000020FFFF0000BF
:100F70001100002000BFFEE710B500F009F802499B
:100F8000024800F0DBF810BD3A1F0000005400409A
:100F900010B56648806908210840002809D06348D8
:100FA0008069012108436149886101216048817796
:100FB000BAE05E48806920210840002809D05B48DB
:100FC00000F0BAF80021594800F00CF900F0C8F917
:100FD000AAE05648806904210840002825D05348DB
:100FE00000F09FFA04465248807F002809D0002173
:100FF0004F488177203004704180C18000F000F9B3
:1010000092E04B48203041884088401C82B24848DA
:101010002030428040384454403040883E28C7DB6E
:101020003D214348203041807EE040488069C00730
:10103000C00F002805D13D488069C007C00F0028B7
:1010400069D03B4820300078032822D0384820302F
:10105000C0883E2814DA36482030C1880089814291
:101060000EDA33482030C288C088401C83B2304832
:101070002030C3804038815C2C4800F056FA53E0A1
:1010800000212B482030C1800181284800F04DFA12
:101090004AE02848408827490988884236DA2548A6
:1010A0002030807800281AD0224840883C280BDD68
:1010B000204948883C21FFF7DAF8012904D11D486E
:1010C0004088401E1B4948801A4820304178174804
:1010D00000F02BFA002117482030817024E01548D9
:1010E00042884088401C134B58801846C068815C79
:1010F0000E4800F01AFA0F4840880E4909888842C5
:1011000012DB00200B49488008800DE001210748D0
:1011100000F00BFA08E0054880691021084000281B
:1011200002D0024800F008F810BD00000054004052
:1011300074000020A0000020C1617047C1617047A9
:10114000002904D0026801231A43026003E0026808
:10115000520852000260704710B504460B488442A2
:1011600009D10121480501F05FF800210120400567
:1011700001F05AF808E00121880501F055F8002136
:101180000120800501F050F810BD0000005400401F
:101190001CB50121480401F017F804220921C806F2
:1011A000FFF70EFE04220A210920C006FFF708FE01
:1011B0000120400200900221684601710321417123
:1011C000012181710021C17169460920C006FFF724
:1011D000AFFD01208002009069460920C006FFF79C
:1011E000A7FD1CBD002905D0426801239B031A43BB
:1011F000426004E0426801239B039A4342607047C7
:1012000070B5002450480078032804D0062823D065
:10121000082870D150E04D4840884C4909888842E0
:1012200019DA4A48008849494988401A85B23C2160
:101230002846FFF71CF8C4B23C212846FFF717F8F0
:10124000002903D1002C01DD601EC4B23F482030CC
:1012500044700121817075E000213B48C1800C2160
:1012600001818020384940390870042238493648C5
:101270003F38FEF7B1FF0422364933483B38FEF7CA
:10128000ABFF3148403834490A784272497881725C
:101290000920C006FFF7B9FD202108404011460093
:1012A0000920C006FFF7B1FD402108408011064328
:1012B00025484038C67245E000212348C1800421FA
:1012C0000181802020494039087024480078487006
:1012D0002248007801280FD11C480088002804D03B
:1012E00008461A490988418027E0002016494039FC
:1012F0008870C87021E024E018480078022817D1CF
:1013000000201149403988700920C006FFF77DFD93
:1013100020210840401146000920C006FFF775FD56
:10132000402108408011064307484038C67004E059
:101330000020054940398870C870002007490870AE
:1013400000E000BF00BF70BD94000020A00000209E
:101350003000002034000020140000202F00002066
:1013600010B548480078012806D002282ED004285D
:1013700031D0072873D143E0424840380078002834
:1013800001D1414948804049C9683F4B5B88C81832
:101390003C4949884A1E3B493F39FEF71DFF3A4800
:1013A000418838484088401E0818374948803548E9
:1013B00040380078FF2808D108464088088000207F
:1013C0004880002130482030017058E006212E4826
:1013D0002030017053E02B48403800780002294942
:1013E0004039497808432849C883264840388078DE
:1013F000000224494039C9780843234988833EE0E4
:101400002048403800784007400F002806D00128C7
:101410000FD0022818D003282DD121E02021092047
:10142000C006FFF7F5FC40210920C006FFF7F0FCDD
:1014300022E020210920C006FFF7ECFC4021092012
:10144000C006FFF7E5FC17E020210920C006FFF7E2
:10145000DFFC40210920C006FFF7DCFC0CE00DE0BA
:1014600020210920C006FFF7D5FC40210920C00635
:10147000FFF7D0FC00E000BF00BF00E000BF00BFEE
:1014800010BD000094000020A0000020002A03D01E
:1014900003680B43036002E003688B4303607047FB
:1014A00010B50A46002103685B085B000360016811
:1014B000144B194094682402536823431943016074
:1014C0000F2424061368A343036103680124234304
:1014D000036000218160C160146993692343194648
:1014E000816083680124E40323438360D168036837
:1014F0000B4303604168044B194053691943416031
:1015000010BD0000FFE0CF00FF7FFF0708B51721E7
:1015100068460170002141700121817000F03AFCA1
:1015200008BD0146486AC0B270478162704700003A
:1015300000B587B01248FFF70FFE102000F0A4FEA0
:101540000121480500F060FE002003900690019004
:1015500001200290E020049000200590612000040A
:10156000009069460648FFF79BFF0122FE210448D0
:10157000FFF78CFF01210248FFF7E2FD07B000BD35
:101580000054004010B500F007F8FFF7BFFFFFF769
:10159000FFFDFFF7CDFF10BD002105488177C17722
:1015A000203001704180C18001818180704700003E
:1015B0007400002010B5074800F02AF8062000F05B
:1015C0001BF8FF2000F01EF800F00EF800F004F801
:1015D00010BD0000555500000148024908607047E1
:1015E000CCCC000000300040014802490860704740
:1015F000AAAA00000030004001494860704700007E
:101600000030004001498860704700000030004011
:1016100001490860704700000030004000B510200C
:101620000F49087000200F4908800F480F490880B3
:1016300000200F4908800F4908800F4908800F4992
:1016400008800F49088001200E4908700E49087073
:101650000E4908700E49087000F024FE00BD00001D
:101660002E00002014000020102700002C00002075
:101670000400002006000020080000200A000020CE
:101680000C0000200E0000200F00002010000020A1
:1016900011000020F8B52A4801F02AF9054629482A
:1016A0008668203007790021017120388079C007D1
:1016B000C00F002809D022482030008801214903AA
:1016C00008431F492031088007E01D48203000886A
:1016D0001D4908401A49203108801A48C08800284E
:1016E00010D11748808A012108431549888217497B
:1016F0001448C288C088401C124BD8805000315218
:1017000000251AE0002F06D03804C01B0D49496996
:10171000401A441902E00B4840692C1AA4000948F9
:10172000C0880521C901884207DA0648C288C088F6
:10173000401C044BD8805000345202484561F8BD2B
:1017400000040040A0000020FFDF000070940000B3
:1017500010B500F0D5F91A48C08804280ADD1848E9
:10176000C0884004000C16498880002114482030AD
:10177000C17006E0022112482030C17000201049DB
:10178000888000200E49C88000210D48203001715A
:101790000078072804D108210948203001700DE0A5
:1017A000074820300078002808D00548203000780D
:1017B000062803D0052102482030017010BD00002A
:1017C000A00000201CB502212448017000202349FC
:1017D000203948800880C880888000211F48817097
:1017E0000221C1701E481D49203908821D488860A9
:1017F0001D48C8600520000288833220C88301216B
:10180000480400F0E1FC0121880400F0DDFC012225
:1018100011461648FFF7D4FA042211460920C006E3
:10182000FFF7CEFA022168460171032141710021C0
:1018300081710121C1710220009069460B48FFF7B8
:1018400077FA1020009069460920C006FFF770FA69
:1018500000F07AF900F062F91CBD0000C000002021
:1018600070940000C8000020C80500200004004853
:1018700010B500249E480078052876D19C48203871
:1018800080889B492039C98B884207DB98482038DB
:10189000808897492039898B88420DDD94480078EB
:1018A000002808D0924800780628FAD002219048F3
:1018B000017000F033F91AE1FF218D482038828849
:1018C0008088401C8A4B203B988018468068815451
:1018D000184682888088401C988018468068815409
:1018E0003D21184682888088401C98801846806870
:1018F00081548622184681888088401C988018462A
:10190000806842540122184681888088401C988053
:101910001846806842540021184682888088401CFE
:101920009880184680688154184680881946088037
:101930000846C088488008468468C06888600846B1
:10194000C460203000780028B5D0694800780628A7
:10195000B1D002216648017001206649087000F08C
:10196000D7FC00F0DBF8C2E0FFE76148007806280A
:1019700004D100F02DF900F0D1F8B8E05C4800780F
:1019800008287DD15A482038808859492039C98B88
:10199000884207DB56482038808855492039898B92
:1019A000884226DD54480078401C53490870084698
:1019B0000078052817D10122FE215048FFF766FD67
:1019C00001214E48FFF7BCFB49480078002806D0AB
:1019D00047480078062802D00221454801700020BF
:1019E0004549087002E006214148017000F096F870
:1019F0007DE00122FE214148FFF748FD01213F48DB
:101A0000FFF79EFBFF223A48203881888088401CDF
:101A1000374B203B9880184680684254FF21184677
:101A200082888088401C98801846806881543D22B6
:101A3000184681888088401C9880184680684254E7
:101A40008621184682888088401C988018468068C5
:101A500081540121184682888088401C988018464D
:101A6000806881540021184682888088401C9880B4
:101A7000184680688154184680881946088000E01E
:101A80001BE00846C088488008468468C0688860B3
:101A90000846C46020300078002828D01448007818
:101AA000062824D002211248017000F037F80120E6
:101AB0001049087000F02CFC19E00D48007800284F
:101AC00004D100F01DF800F095F810E00848007807
:101AD00004280CD106480078002808D00448007873
:101AE000062804D002210248017000F017F810BD4A
:101AF000C00000202F0000203A00002000540040C9
:101B000010B500221121044800F040FF00210248D6
:101B100000F058FE10BD00000004004010B5012187
:101B2000084800F0E3FE1121064800F045FE0122BE
:101B30001121044800F02AFF0121024800F042FE72
:101B400010BD00000004004000B587B000201D4912
:101B5000C88001211B482030C170002019498880AD
:101B60000021184820300171174800F04BFE102169
:101B70006846017301214173817303A800F00AF9DB
:101B80000121022000F040FB3F21684601820F48FE
:101B90000590002168464182817604A90A4800F038
:101BA00079FF0C21684601800021018102214180DA
:101BB0000021C180012181806946034800F0AEFE0A
:101BC00007B000BDA000002000040040FFFF00009F
:101BD00010B500220321064800F0D8FE0021044879
:101BE00000F02AFF0021024800F0ECFD10BD0000CB
:101BF000002C0140F0B58BB000254348C66843482F
:101C00000068FEF7DFFE029001213F48203001709E
:101C100002203D4948800888C10F091849103A4AF6
:101C200011801146088AFEF7CDFE01460090029809
:101C3000FEF7D4FD0746FEF781FE84B22046E11789
:101C4000890F09188910304A91612146304800F007
:101C5000F1FE7588B0884519AD082E4800F0D2FD18
:101C60000E216846017101214171817101A800F0C6
:101C700091F80D216846017101A800F08BF801214F
:101C8000C80200F0E1FA3F2168460184099500216D
:101C9000418408A881726846018508A91D4800F0A2
:101CA000F9FE00211B4800F079FDFF210131684653
:101CB00081830021818101214902C183082141835F
:101CC0000221018300210182C1817088801005906A
:101CD00003A9104800F064FE01210E4800F006FE42
:101CE00003210C4800F06BFD01220321094800F09C
:101CF0004DFE05488169064800F09EFE0121054819
:101D000000F060FD0BB0F0BDA000002040000020FE
:101D100000200040002C014010B51948007803282D
:101D200003D017480078072821D115482038C088EB
:101D30001449098888421AD113480088401C124966
:101D4000088008460088642804DD0D482038C088D3
:101D5000002809DC0C4800880C4988420FDD08483F
:101D60002038C08800280AD1FFF7F2FC07E00448B9
:101D70002038C0880349088000200349088010BD2E
:101D8000C00000203C0000203E0000201027000082
:101D90007047000000218278002A27D0184A0323C8
:101DA0001B02D21803789B109B00D158027892072F
:101DB000D30EFF229A400B4693431946427892076E
:101DC000120E03789B07DB0E9A4011430C4A032343
:101DD0001B02D21803789B109B00D1500278D306C7
:101DE000DB0E01229A40064B1A6007E00278D30608
:101DF000DB0E01229A40024B80331A6070470000CC
:101E000000E100E07047000000203F4908803F48A3
:101E10000088401C3D4908803D48007801280DD1CC
:101E200000203C490870384908803B49088001205F
:101E30003649088000203649087044E0354800786B
:101E400001281DD13448008864283CDB32480088D2
:101E5000324908802F4800783149087000202C4909
:101E60000870084600782F4908700020294908703A
:101E7000254908802849088001202449088022E05B
:101E8000254800887D21C90088421CDB2248008843
:101E9000224908801D480088234908801D48007891
:101EA0001F49087000201A490870084600781D492B
:101EB00008700020174908701349088016490880E7
:101EC00001201249088019480078212804D11848B7
:101ED0000088401C1649088014480078102812D148
:101EE00013480088401C12490880084600881149A0
:101EF0000988884207D100200D4908800E480068F3
:101F0000401C0D4908607047040000200A000020B2
:101F1000100000200E000020060000200800002015
:101F20000F000020110000200C0000202E000020D7
:101F30001E0000201C00002018000020244800780B
:101F4000212810D123480068401C22490860084617
:101F500000682149884206D123201D4908701F4886
:101F600000881F4908801F480088002809D01E48A3
:101F70000088401C1C4908801C480088401C1B49E4
:101F800008801A4800881A49884210DB0120194944
:101F90000870084600781849087000201349088026
:101FA000114908800F490880144908700EE00E4856
:101FB000008864280AD10B480088022803DA01202F
:101FC0000E49087002E000200C49087070470000BC
:101FD0002E00002020000020A08C00001E00002009
:101FE0001C0000200A000020060000200400002041
:101FF000E02E000010000020110000200E00002044
:1020000000B589B0FFF70AFB0121480400F0DCF8B5
:10201000042005900021684601760221C17605A9B9
:102020000920C006FEF784FE0121084600F00CF9E5
:102030000221002000F04CF904200790002108A89C
:1020400001700C2141700121817007A8FEF78CFD01
:1020500006216846017401214174817404A8FFF7C8
:1020600099FE15216846017401214174817404A808
:10207000FFF790FE0F4800F0C5FB0121480400F077
:10208000E3F83F2168468180FA20029000216846EB
:102090008181C18001A9074800F0FCFC01221146A2
:1020A000044800F073FC0121024800F08BFB09B0EA
:1020B00000BD00000044014010B50920C006FEF735
:1020C000A1FE08210840002802D101203B490870E8
:1020D0000920C006FEF796FE80210840002802D1A4
:1020E0000120364948700920C006FEF78EFE022105
:1020F0000840002810D132480078401C3049087050
:1021000008460078142807D102210920C006FEF7EE
:1021100081FE00202A49087028480078012823D130
:102120000920C006FEF76EFE0821084000281BD0DB
:1021300000202249087002202249087000F0E8F8C7
:102140000920C006FEF761FE20210840002805D1C5
:1021500001220920C006FEF75FFE05E000222021D3
:102160000920C006FEF758FE14484078012823D104
:102170000920C006FEF746FE8021084000281BD03B
:1021800000200E49487002200E49087000F0C0F887
:102190000920C006FEF739FE40210840002805D17D
:1021A00001220920C006FEF737FE05E0002240218B
:1021B0000920C006FEF730FE10BD00000000002020
:1021C000020000202F000020002905D0054A526996
:1021D0000243044B5A6104E0024A52698243014BB4
:1021E0005A61704700100240002905D0054A926AE2
:1021F0000243044B9A6204E0024A926A8243014B12
:102200009A62704700100240002905D0054AD26941
:102210000243044BDA6104E0024AD2698243014B73
:10222000DA61704700100240002905D0054A1269A2
:102230000243044B1A6104E0024A12698243014BD3
:102240001A61704700100240002905D0054A9269C2
:102250000243044B9A6104E0024A92698243014BB3
:102260009A61704700100240002905D0054AD268E3
:102270000243044BDA6004E0024AD2688243014B15
:10228000DA607047001002400549096B1022914343
:10229000034A11631146096B014311637047000043
:1022A00000100240044805490880054805490860B7
:1022B0000020054908607047102700002C0000200E
:1022C0006F13000024000020180000207047000059
:1022D00030B500228B071C0F0F23A3401A460B4B6F
:1022E0008C10A4001B599343084C8D10AD00635112
:1022F00023468C10A4001B598C07250F0446AC40C4
:102300002343024C8D10AD00635130BD08000140E5
:1023100010B502210920C006FEF77AFD10BD0000AD
:102320000CB500200190009031480068012109049B
:1023300008432F49086000BF2D4800680121490467
:10234000084000900198401C01900098002804D19A
:102350000521090301988842EED125480068012132
:1023600049040840002802D00120009001E000202C
:1023700000900098012839D111201E4908601C489E
:1023800040681B4948600846406848600846406805
:102390007F21C903884316494860084640681321D5
:1023A00009040843124948600846006801210906EB
:1023B00008430F49086000BF0D4800680121490625
:1023C00008400028F8D00A48406880088000084982
:1023D000486008464068022108430549486000BF3C
:1023E000034840680C2108400828F9D10CBD0000C2
:1023F000001002400020024010B51B480068012177
:1024000008431949086008464068184908401649B9
:1024100048600846006816490840134908600846A5
:1024200000680121890488430F4908600846406814
:102430003F21090488430C4948600846C06A0009E6
:102440000001C8620846006BFF21543188430649E9
:1024500008630846406B40084000486300208860DD
:10246000FFF75EFF10BD0000001002400CB8FFF83F
:10247000FFFFF6FEF0B50C4600210025068C0A4F42
:102480003E400684018B058C074EF23E31401E050E
:10249000360C16433143044E093E3540012626438F
:1024A000354301830584F0BDFEFF0000F8B50C46FE
:1024B0000021002500260096068C0D4F3E40068424
:1024C000018B058C2605360C00960A4E31401E07FE
:1024D000360C31431606360C3143054E903E3540DE
:1024E0001027009E3E43354301830584F8BD00005C
:1024F000EFFF0000FF0C0000F8B50C46002100259E
:1025000000260096068C0C4F3E400684818B058C7D
:102510002606360C0096084E0D3631401E05360C48
:1025200016433143054E3540FF270137009E3E4399
:10253000354381830584F8BDFFFE0000FFF50000F0
:10254000F8B50C460021002500260096068C0D4F9C
:102550003E400684818B058C2607360C00960A4E79
:1025600031401606360C31431E07360C3143074EF8
:10257000354001273F03009E3E4335438183058458
:10258000F8BD0000FFEF0000FF0C0000FF5F00003F
:1025900010B50121014800F00FF910BD00200040E6
:1025A00010B50121064800F0A6F9002807D0012146
:1025B000034800F004F9FFF7C1FCFFF7ADFB10BDC5
:1025C00000440140F8B500243E48C5683E48008AF2
:1025D0003E4908403C4908823A48203000780128AA
:1025E0006FD138484088401C3649488008464088AA
:1025F0004000285A3549491C884212D13148408848
:10260000801C40002C5A24042E484088401C400066
:10261000285A0419A6082B484088801C294948805C
:1026200004E0284840884000285A86102548408801
:10263000401C24494880084640884000285A2349C5
:10264000491C884212D11F484088801C40002C5AE7
:1026500024041C484088401C4000285A0419A7083C
:1026600018484088801C1749488004E01548408875
:102670004000285A87103C46A41912484088114946
:102680000988884209DC1048C4624663002C18D0CF
:102690000C4880690E49486313E00A4820300078EE
:1026A000002808D0074820300078062803D00421ED
:1026B0000448203001700020024948800880FFF75C
:1026C00087FAF8BDA0000020002C0140FEFF0000AA
:1026D0000020004010B50221074800F00CF9002846
:1026E00008D00020054948630348008A044908408F
:1026F0000149088210BD0000002C0140002000406C
:10270000FDFF000010B51021214800F0F4F800286A
:1027100025D02048007806280CD107211D480170DB
:102720000022FE211C48FEF7B1FE00211A48FEF7E8
:1027300007FD0EE01748007802280AD115480078F6
:10274000002806D013480078062802D0032111483B
:102750000170FEF79FFF10210D4800F02DF80121B8
:102760000B4800F0C8F8002811D00121084800F0FB
:1027700023F808480078032803D006480078072883
:1027800005D104480079401CC1B20248017110BD56
:1027900000040040C000002000540040002904D084
:1027A000028880231A43028003E00288014B1A400A
:1027B000028070477FFF0000CA4302827047CA430D
:1027C00002827047002904D0028801231A43028044
:1027D00003E00288014B1A4002807047FEFF0000B0
:1027E000002907D04422125A0123DB031A43442351
:1027F0001A5205E04422125A53045B0C442213522D
:102800007047000010B504463148844208D10121C8
:10281000C014FFF729FD0021E014FFF725FD56E065
:1028200001208007844208D101210846FFF7FCFC03
:1028300000210120FFF7F8FC49E02648844208D136
:1028400001210220FFF7F0FC00210220FFF7ECFC41
:102850003DE02148844208D101211020FFF7E4FC2B
:1028600000211020FFF7E0FC31E01C48844208D131
:1028700001218015FFF7D8FC0021A015FFF7D4FC3B
:1028800025E01748844209D101210804FFF7ECFC38
:10289000002101200004FFF7E7FC18E01148844202
:1028A00009D101214804FFF7DFFC00210120400489
:1028B000FFF7DAFC0BE00C48844208D101218804C0
:1028C000FFF7D2FC002101208004FFF7CDFC10BDF2
:1028D000002C014000040040001000400020004097
:1028E000004001400044014000480140818270479F
:1028F0000146086C704730B50246002000230024D2
:10290000158A0D402B4695890D402C46002B03D08F
:10291000002C01D0012000E0002030BD70B505463C
:102920000C46208800280AD12389A288618828467D
:10293000FFF7A0FDE188284600F080F825E0208818
:1029400004280AD12389A28861882846FFF7AEFDB2
:10295000E188284600F07CF817E0208808280AD192
:102960002389A28861882846FFF7C6FDE1882846AA
:1029700000F07AF809E02389A28861882846FFF7E9
:10298000DFFDE188284600F079F870BD002A03D009
:1029900083890B43838102E083898B438381704762
:1029A00070B5002400220023058C1C4E35400584A0
:1029B000028C8388048B194D6F3D2C40B51E2C4032
:1029C0000D882C43751E2A408D892A434D882A4341
:1029D000134DA84208D0134DA84205D0124DA8426D
:1029E00002D0124DA84212D10C4DED1F2A40CD89C4
:1029F0002A430A4DED1E2A408D882A43074DFF3D8C
:102A00002B400B4D2B400D8A2B434D8A2B4383804B
:102A100004838D684563028470BD0000FEFF0000E2
:102A2000002C0140004001400044014000480140AA
:102A3000FFFD0000C162704741637047028B034B8A
:102A40001A400283028B0A4302837047F3FF00009F
:102A5000028B044B1A400283028B0B061B0C1A4399
:102A600002837047FFF30000828B034B1A4082837E
:102A7000828B0A4382837047F3FF0000828B044BF2
:102A80001A408283828B0B061B0C1A438283704789
:102A9000FFF3000000220288154B984206D0012364
:102AA0009B07984202D0134B984203D1124B1A4015
:102AB0004B881A43114B984203D0114B1A400B8993
:102AC0001A4302804B68C3620B880385084B984207
:102AD00008D00C4B984205D00B4B984202D00B4BC0
:102AE000984201D18B7A03860123838270470000CC
:102AF000002C0140000400408FFF00000010004047
:102B0000FFFC00000040014000440140004801403B
:102B100000B589B001214804FFF756FB01214802A6
:102B2000FFF792FB0120019003216846017200210A
:102B3000C17201A90920C006FEF7FAF81248FDF794
:102B40008FFF03A8FDF7FBFF0020039001216846DB
:102B50000174002005900790089003A90A48FDF72A
:102B6000D3FF072201210848FDF75FFF0648FDF764
:102B700087FF002204210448FDF7BCFF0121024821
:102B8000FDF761FF09B000BD0024014010B51548F4
:102B90000088401C80B2134908807D21C90088420A
:102BA00000DA10BD00200F49088004210E48FDF70F
:102BB00089FF00280BD004210B48FDF742FF0A488B
:102BC000FDF77CFF0446FEF72DF908490860084927
:102BD0000548FDF777FF002802D00348FDF7AAFF5C
:102BE00000BFDEE738000020002401403000002054
:102BF0000100000110B58AB013216846017101215E
:102C00004171817101A8FFF7C5F81B491B48006895
:102C1000FDF723FB84B21A48FFF7F4FD01210802F7
:102C2000FFF7F2FA00216846818308948184C1830A
:102C300007A91348FFF72EFF702168460181012183
:102C4000418100200490022168468182C9010183EC
:102C500002A90B48FFF7A4FE002201210848FFF754
:102C600095FE01210648FFF7ADFD01210448FFF75D
:102C7000B7FD0AB010BD00007094000040000020B5
:102C80000020004010B5FEF707F8FEF77BFCFFF7C9
:102C90003FFF002400E0641C05488442FBDBFEF794
:102CA00091FDFFF7ADF9FFF7A5FFFEF783FC10BD1F
:102CB00000E20400FFF7E6FF03E0FDF799FFFEF7EF
:102CC00093FCFAE770B501250400ED074C4020D4D1
:102CD000441A01D2001B0919C60D4B00F2B2FF2A9B
:102CE00029D01B0E2CD000020C02D31A2C43DC403E
:102CF0002843051910D2280A02D3401C6D0611D0B2
:102D0000761EF6058019FF2A00DA70BDC00DC005D9
:102D100070BD694000F022F801200543C541521CF6
:102D2000761CE8E764089C40C90161408900E7D14E
:102D30000124A043E4E71B0E440200D0034870BD09
:102D4000002AFCD1C00FC00770BD00BF0000C07FCB
:102D500070B501250400ED074C4022D4441A02D27C
:102D60006C40001B0919C60D4B00F2B2FF2A4BD074
:102D70001B0E50D000020C02D31A2C43DC40A84397
:102D8000051B05D5AD0019D36D08761E521E37D030
:102D9000F605280A01D2801970BD70416D0603D076
:102DA00070BD6940FFF794FF9C40090261404900F3
:102DB00001D0401E70BD0124A04370BD6D081DD020
:102DC00001202B0C01D12D0410302B0E01D12D022E
:102DD00008302B0F01D12D01001DAB0F01D1AD002B
:102DE000801CEB0F01D16D00401C6D00361A121AC9
:102DF000680AF5054019012A02DB70BD002070BD8C
:102E0000C036300AC00770BD1B0E440201D1FF2B33
:102E100000D1024870BD002AF0D070BD0000C07F14
:102E20004C015D016D017F019101A301B701CA0150
:102E3000DF010A02210238025002690282029C026A
:102E4000B702D202EE020B03280346036503840394
:102E5000A303C403E403060428044A046D04900495
:102E6000B404D804FC04210547056C059205B80597
:102E7000DE0505062C0653067A06A106C806EF06EF
:102E800016073E0765078C07B307D9070008260811
:102E90004D0873089808BE08E30807092B094F0975
:102EA00073099609B909DB09FD091E0A3F0A5F0A81
:102EB0007F0A9E0ABC0ADB0AF80A150B320B4E0B7E
:102EC0006A0B850B9F0BB90BD30BEC0B040C1C0C82
:102ED000330C4A0C8182838485868788898B8C8D0C
:102EE0008E8F919293959697999A9C9D9FA0A2A35D
:102EF000A5A7A8AAACAEB0B2B3B5B7B9BCBEC0C2A4
:102F0000C5C7C9CCCED1D4D7D9DCDFE2E6E9ECF035
:102F1000F3F7FAFE342F00080000002054000000F0
:102F200004010008882F000854000020340F00001E
:102F30002001000800000000000000000000000068
:102F40000000000000000000000000000000000081
:102F50000000000000000000000000000000000071
:102F60000000000000000000000000000000000061
:102F7000000000000024F400000000000000000039
:082F8000010203040607080921
:04000005080000C12E
:00000001FF
